:060000000A128A11142906
:10000800F000030EF1000B191E200C1812208C189A
:100018001B20710E8300F00E700E0900031383126B
:1000280085308F00EE308E000C10850A0800890A92
:100038008C10080003138312FC3081000B11880117
:10004800091C080021182C282408870008143028C7
:0E00580025088700881430280130A106080012
:100200008A010A140F3982073F3406345B344F34B5
:1002100066346D347D3407347F346F3477347C3406
:1002200039345E34793471342D214D2154216321C8
:1002300071213E210508A0001F2126211A2920082E
:100240000F39A200200E0F39A30008002208002158
:10025000A40023080021A5000800031783168801C5
:10026000890103138316850187018801091003138F
:100270008312850187018801091008000313831286
:100280008B170B178B160B11031383160C148C147E
:10029000031383120C108C100800031383160F171E
:1002A0008F120F120F14080003138316811281118D
:1002B0000115811401140313831203138312FC30FC
:1002C00081000B11080003138312101490101016F4
:1002D00090160313831285308F00EE308E000C10C1
:1002E0000800031383121215921412141217921697
:1002F000121692158C1003138316F4309200080026
:04400E00C430FF3F7C
:00000001FF
